{
  "_format": "hh-sol-artifact-1",
  "contractName": "Admin",
  "sourceName": "contracts/nft.sol",
  "abi": [
    {
      "inputs": [
        {
          "internalType": "address",
          "name": "initialOwner",
          "type": "address"
        }
      ],
      "stateMutability": "nonpayable",
      "type": "constructor"
    },
    {
      "inputs": [
        {
          "internalType": "address",
          "name": "owner",
          "type": "address"
        }
      ],
      "name": "OwnableInvalidOwner",
      "type": "error"
    },
    {
      "inputs": [
        {
          "internalType": "address",
          "name": "account",
          "type": "address"
        }
      ],
      "name": "OwnableUnauthorizedAccount",
      "type": "error"
    },
    {
      "anonymous": false,
      "inputs": [
        {
          "indexed": true,
          "internalType": "address",
          "name": "previousOwner",
          "type": "address"
        },
        {
          "indexed": true,
          "internalType": "address",
          "name": "newOwner",
          "type": "address"
        }
      ],
      "name": "OwnershipTransferred",
      "type": "event"
    },
    {
      "inputs": [
        {
          "internalType": "address",
          "name": "_sellerID",
          "type": "address"
        },
        {
          "internalType": "string",
          "name": "_name",
          "type": "string"
        }
      ],
      "name": "addSeller",
      "outputs": [],
      "stateMutability": "nonpayable",
      "type": "function"
    },
    {
      "inputs": [],
      "name": "getSellers",
      "outputs": [
        {
          "internalType": "string[]",
          "name": "",
          "type": "string[]"
        },
        {
          "internalType": "address[]",
          "name": "",
          "type": "address[]"
        }
      ],
      "stateMutability": "view",
      "type": "function"
    },
    {
      "inputs": [],
      "name": "owner",
      "outputs": [
        {
          "internalType": "address",
          "name": "",
          "type": "address"
        }
      ],
      "stateMutability": "view",
      "type": "function"
    },
    {
      "inputs": [],
      "name": "renounceOwnership",
      "outputs": [],
      "stateMutability": "nonpayable",
      "type": "function"
    },
    {
      "inputs": [
        {
          "internalType": "address",
          "name": "newOwner",
          "type": "address"
        }
      ],
      "name": "transferOwnership",
      "outputs": [],
      "stateMutability": "nonpayable",
      "type": "function"
    }
  ],
  "bytecode": "0x60806040523480156200001157600080fd5b506040516200121c3803806200121c8339818101604052810190620000379190620001f4565b80600073ffffffffffffffffffffffffffffffffffffffff168173ffffffffffffffffffffffffffffffffffffffff1603620000ad5760006040517f1e4fbdf7000000000000000000000000000000000000000000000000000000008152600401620000a4919062000237565b60405180910390fd5b620000be81620000c660201b60201c565b505062000254565b60008060009054906101000a900473ffffffffffffffffffffffffffffffffffffffff169050816000806101000a81548173ffffffffffffffffffffffffffffffffffffffff021916908373ffffffffffffffffffffffffffffffffffffffff1602179055508173ffffffffffffffffffffffffffffffffffffffff168173ffffffffffffffffffffffffffffffffffffffff167f8be0079c531659141344cd1fd0a4f28419497f9722a3daafe3b4186f6b6457e060405160405180910390a35050565b600080fd5b600073ffffffffffffffffffffffffffffffffffffffff82169050919050565b6000620001bc826200018f565b9050919050565b620001ce81620001af565b8114620001da57600080fd5b50565b600081519050620001ee81620001c3565b92915050565b6000602082840312156200020d576200020c6200018a565b5b60006200021d84828501620001dd565b91505092915050565b6200023181620001af565b82525050565b60006020820190506200024e600083018462000226565b92915050565b610fb880620002646000396000f3fe608060405234801561001057600080fd5b50600436106100575760003560e01c80631b73e67e1461005c578063715018a6146100785780637ee454cb146100825780638da5cb5b146100a1578063f2fde38b146100bf575b600080fd5b6100766004803603810190610071919061088e565b6100db565b005b6100806101d8565b005b61008a6101ec565b604051610098929190610ae9565b60405180910390f35b6100a961042a565b6040516100b69190610b2f565b60405180910390f35b6100d960048036038101906100d49190610b4a565b610453565b005b6100e4826104d9565b15610124576040517f08c379a000000000000000000000000000000000000000000000000000000000815260040161011b90610bd4565b60405180910390fd5b6001829080600181540180825580915050600190039060005260206000200160009091909190916101000a81548173ffffffffffffffffffffffffffffffffffffffff021916908373ffffffffffffffffffffffffffffffffffffffff16021790555080600260008473ffffffffffffffffffffffffffffffffffffffff1673ffffffffffffffffffffffffffffffffffffffff16815260200190815260200160002090816101d39190610e0a565b505050565b6101e0610583565b6101ea600061060a565b565b6060806101f7610583565b600060018054905067ffffffffffffffff81111561021857610217610763565b5b60405190808252806020026020018201604052801561024b57816020015b60608152602001906001900390816102365790505b50905060005b60018054905081101561039557600260006001838154811061027657610275610edc565b5b9060005260206000200160009054906101000a900473ffffffffffffffffffffffffffffffffffffffff1673ffffffffffffffffffffffffffffffffffffffff1673ffffffffffffffffffffffffffffffffffffffff16815260200190815260200160002080546102e690610c23565b80601f016020809104026020016040519081016040528092919081815260200182805461031290610c23565b801561035f5780601f106103345761010080835404028352916020019161035f565b820191906000526020600020905b81548152906001019060200180831161034257829003601f168201915b505050505082828151811061037757610376610edc565b5b6020026020010181905250808061038d90610f3a565b915050610251565b508060018080548060200260200160405190810160405280929190818152602001828054801561041a57602002820191906000526020600020905b8160009054906101000a900473ffffffffffffffffffffffffffffffffffffffff1673ffffffffffffffffffffffffffffffffffffffff16815260200190600101908083116103d0575b5050505050905092509250509091565b60008060009054906101000a900473ffffffffffffffffffffffffffffffffffffffff16905090565b61045b610583565b600073ffffffffffffffffffffffffffffffffffffffff168173ffffffffffffffffffffffffffffffffffffffff16036104cd5760006040517f1e4fbdf70000000000000000000000000000000000000000000000000000000081526004016104c49190610b2f565b60405180910390fd5b6104d68161060a565b50565b6000806000905060005b600180549050811015610579578373ffffffffffffffffffffffffffffffffffffffff166001828154811061051b5761051a610edc565b5b9060005260206000200160009054906101000a900473ffffffffffffffffffffffffffffffffffffffff1673ffffffffffffffffffffffffffffffffffffffff160361056657600191505b808061057190610f3a565b9150506104e3565b5080915050919050565b61058b6106ce565b73ffffffffffffffffffffffffffffffffffffffff166105a961042a565b73ffffffffffffffffffffffffffffffffffffffff1614610608576105cc6106ce565b6040517f118cdaa70000000000000000000000000000000000000000000000000000000081526004016105ff9190610b2f565b60405180910390fd5b565b60008060009054906101000a900473ffffffffffffffffffffffffffffffffffffffff169050816000806101000a81548173ffffffffffffffffffffffffffffffffffffffff021916908373ffffffffffffffffffffffffffffffffffffffff1602179055508173ffffffffffffffffffffffffffffffffffffffff168173ffffffffffffffffffffffffffffffffffffffff167f8be0079c531659141344cd1fd0a4f28419497f9722a3daafe3b4186f6b6457e060405160405180910390a35050565b600033905090565b6000604051905090565b600080fd5b600080fd5b600073ffffffffffffffffffffffffffffffffffffffff82169050919050565b6000610715826106ea565b9050919050565b6107258161070a565b811461073057600080fd5b50565b6000813590506107428161071c565b92915050565b600080fd5b600080fd5b6000601f19601f8301169050919050565b7f4e487b7100000000000000000000000000000000000000000000000000000000600052604160045260246000fd5b61079b82610752565b810181811067ffffffffffffffff821117156107ba576107b9610763565b5b80604052505050565b60006107cd6106d6565b90506107d98282610792565b919050565b600067ffffffffffffffff8211156107f9576107f8610763565b5b61080282610752565b9050602081019050919050565b82818337600083830152505050565b600061083161082c846107de565b6107c3565b90508281526020810184848401111561084d5761084c61074d565b5b61085884828561080f565b509392505050565b600082601f83011261087557610874610748565b5b813561088584826020860161081e565b91505092915050565b600080604083850312156108a5576108a46106e0565b5b60006108b385828601610733565b925050602083013567ffffffffffffffff8111156108d4576108d36106e5565b5b6108e085828601610860565b9150509250929050565b600081519050919050565b600082825260208201905092915050565b6000819050602082019050919050565b600081519050919050565b600082825260208201905092915050565b60005b83811015610950578082015181840152602081019050610935565b60008484015250505050565b600061096782610916565b6109718185610921565b9350610981818560208601610932565b61098a81610752565b840191505092915050565b60006109a1838361095c565b905092915050565b6000602082019050919050565b60006109c1826108ea565b6109cb81856108f5565b9350836020820285016109dd85610906565b8060005b85811015610a1957848403895281516109fa8582610995565b9450610a05836109a9565b925060208a019950506001810190506109e1565b50829750879550505050505092915050565b600081519050919050565b600082825260208201905092915050565b6000819050602082019050919050565b610a608161070a565b82525050565b6000610a728383610a57565b60208301905092915050565b6000602082019050919050565b6000610a9682610a2b565b610aa08185610a36565b9350610aab83610a47565b8060005b83811015610adc578151610ac38882610a66565b9750610ace83610a7e565b925050600181019050610aaf565b5085935050505092915050565b60006040820190508181036000830152610b0381856109b6565b90508181036020830152610b178184610a8b565b90509392505050565b610b298161070a565b82525050565b6000602082019050610b446000830184610b20565b92915050565b600060208284031215610b6057610b5f6106e0565b5b6000610b6e84828501610733565b91505092915050565b600082825260208201905092915050565b7f53656c6c657220697320616c726561647920696e2053656c6c6572204c697374600082015250565b6000610bbe602083610b77565b9150610bc982610b88565b602082019050919050565b60006020820190508181036000830152610bed81610bb1565b9050919050565b7f4e487b7100000000000000000000000000000000000000000000000000000000600052602260045260246000fd5b60006002820490506001821680610c3b57607f821691505b602082108103610c4e57610c4d610bf4565b5b50919050565b60008190508160005260206000209050919050565b60006020601f8301049050919050565b600082821b905092915050565b600060088302610cb67fffffffffffffffffffffffffffffffffffffffffffffffffffffffffffffffff82610c79565b610cc08683610c79565b95508019841693508086168417925050509392505050565b6000819050919050565b6000819050919050565b6000610d07610d02610cfd84610cd8565b610ce2565b610cd8565b9050919050565b6000819050919050565b610d2183610cec565b610d35610d2d82610d0e565b848454610c86565b825550505050565b600090565b610d4a610d3d565b610d55818484610d18565b505050565b5b81811015610d7957610d6e600082610d42565b600181019050610d5b565b5050565b601f821115610dbe57610d8f81610c54565b610d9884610c69565b81016020851015610da7578190505b610dbb610db385610c69565b830182610d5a565b50505b505050565b600082821c905092915050565b6000610de160001984600802610dc3565b1980831691505092915050565b6000610dfa8383610dd0565b9150826002028217905092915050565b610e1382610916565b67ffffffffffffffff811115610e2c57610e2b610763565b5b610e368254610c23565b610e41828285610d7d565b600060209050601f831160018114610e745760008415610e62578287015190505b610e6c8582610dee565b865550610ed4565b601f198416610e8286610c54565b60005b82811015610eaa57848901518255600182019150602085019450602081019050610e85565b86831015610ec75784890151610ec3601f891682610dd0565b8355505b6001600288020188555050505b505050505050565b7f4e487b7100000000000000000000000000000000000000000000000000000000600052603260045260246000fd5b7f4e487b7100000000000000000000000000000000000000000000000000000000600052601160045260246000fd5b6000610f4582610cd8565b91507fffffffffffffffffffffffffffffffffffffffffffffffffffffffffffffffff8203610f7757610f76610f0b565b5b60018201905091905056fea26469706673582212207e4293f1256c1b147cb369bf7b99fdd3bc3e74bff37ef26567c43ff64564413664736f6c63430008140033",
  "linkReferences": {},
  "deployedLinkReferences": {}
}